S02B0000433A2F55736572732F6E636F6F6C2F4769746875622F4E6F726469635F4E52462F4F75747075742F78
S1130000000004204D3D0000871E0000A91B0000D5
S113001000000000000000000000000000000000DC
S11300200000000000000000000000009B1E000013
S11300300000000000000000691C000081070000AF
S11300404F1F0000C31F0000E71F000053200000E3
S11300500B2100001B2100007B210000DB2100009C
S11300600F2200004322000077220000AB22000090
S11300700B230000332300007323000077230000C8
S1130080D72300000F240000A72600001727000034
S1130090BB27000093280000D7290000372A00005E
S11300A0AF2B0000232C0000672C0000E32C000081
S11300B06B2D0000832D000009320000093200007E
S11300C0532E0000332F0000FF300000F7310000F2
S11300D0F9310000FB310000FD31000091170000F0
S11300E0FF31000001320000033200000932000039
S11300F00932000005320000093200000732000016
S113010009320000093200000932000009320000FF
S113011009320000093200000932000009320000EF
S113012009320000093200000932000009320000DF
S113013009320000093200000932000009320000CF
S113014009320000093200000932000009320000BF
S113015009320000093200000932000009320000AF
S1130160093200000932000009320000093200009F
S1130170093200000932000009320000093200008F
S1130180093200000932000009320000093200007F
S1130190093200000932000009320000093200006F
S11301A0093200000932000009320000093200005F
S11301B0093200000932000009320000093200004F
S11301C0093200000932000009320000093200003F
S11301D0093200000932000009320000093200002F
S11301E0093200000932000009320000093200001F
S11301F0093200000932000009320000093200000F
S1130200034C206804348047FBE700F003F8FEE762
S10702108C4A000010
S113021480B586B000200490059004F033F800F013
S11302245BFB00F059FA049802F06EF86946022068
S113023488604FF4C050486040F28800C2F2000065
S1130244086042F2F400C2F2000044F6C411C0F2A1
S1130254000141F6D953C0F20003642204F018F9F2
S113026403F086F84CF65821884202D0FD2000F0B1
S10F0274FFF804F067F8002006B080BD1D
S113028080B5002000F050FA322004F0C1F9F8E7FC
S113029080B5012000F048FAC82004F0B9F9F8E765
S11302A080B582B042F22C20C2F20000006810F83F
S11302B0180CD8B342F2F810C2F20000006868B318
S11302C042F20420C2F20000006842F22C21C2F281
S11302D00001096811F8181C401A08300090002029
S11302E08DF807009DF8070042F22C21C2F20001AC
S11302F0096811F8181C884210DA42F2F810C2F2A8
S11303000000016800980078884700980130009048
S11303109DF8070001308DF80700E3E742F22C2036
S1130320C2F200000168002001F8180C02B080BD80
S113033080B582B000200190802080F3118842F2C1
S11303401420C2F20000006830B942F21421C2F253
S1130350000101200860019040F20000C2F2000098
S11303604078102802D3992000F084F840F200006D
S1130370C2F20000407810B9002080F3118801987F
S107038002B080BD86
S113038480B584B08DF80F000120029042F2002061
S1130394C2F20000006800909DF80F0000990870F4
S11303A400980130009042F2FC10C2F20000006890
S11303B4C8B10298122800D315E042F2FC10C2F22C
S11303C400000068804701900198B0F1FF3F00DC11
S11303D409E001980099087000980130009002988F
S11303E401300290E5E7802080F3118842F20C2169
S11303F4C2F200014FF47A700860029842F22C2190
S1130404C2F20001096801F8160C40F20000C2F2BD
S113041400004078102802D3992000F029F840F213
S11304240000C2F20000407810B9002080F3118863
S107043404B080BDCF
S113043881B00090009842F2F811C2F200010860FD
S107044801B0704744
S113044C81B00090009842F2F411C2F200010860ED
S107045C01B0704730
S113046081B00090009842F2FC11C2F200010860D1
S107047001B070471C
S113047480B582B0ADF8060003F0CBF940F2000178
S1130484C2F200010020487080F31188BDF8060010
S1130494A1F87400BDF8060000B1FBE702B080BD0A
S11304A442F65431C2F2000149F20000C0F2D030E5
S10704B40860704721
S11304B880B501F02FFE78B140F20C11C4F20001AE
S11304C80020086040F21011C4F20001086040F2F4
S11304D83851C4F20001086001F04CFE002800F015
S11304E8AA8040F20440C1F2000000684CF2205196
S11304F8C4F20001086040F20840C1F2000000683C
S11305084CF22451C4F20001086040F20C40C1F2DC
S1130518000000684CF22851C4F20001086040F25F
S11305281040C1F2000000684CF22C51C4F20001E2
S1130538086040F21440C1F2000000684CF23051E7
S1130548C4F20001086040F21840C1F200000068DB
S11305584CF23451C4F20001086040F21C40C1F26C
S1130568000000684CF24051C4F20001086040F2F7
S11305782040C1F2000000684CF24451C4F200016A
S1130588086040F22440C1F2000000684CF248516F
S1130598C4F20001086040F22840C1F2000000687B
S11305A84CF24C51C4F20001086040F22C40C1F2F4
S11305B8000000684CF25051C4F20001086040F297
S11305C83040C1F2000000684CF25451C4F20001FA
S11305D8086040F23440C1F2000000684CF26051F7
S11305E8C4F20001086040F23840C1F2000000681B
S11305F84CF26451C4F20001086040F23C40C1F27C
S1130608000000684CF26851C4F20001086040F22E
S11306184040C1F2000000684CF26C51C4F2000181
S1130628086040F24440C1F2000000684CF2705186
S1130638C4F20001086001F0CDFD40B145F28C61BF
S1130648C4F2000148F24810C0F20300086001F047
S1130658DBFD28B14FF21851C4F20001FB200860F9
S113066801F0ECFD60B140F6E461C4F200010868F1
S113067840F25822C1F20002126862F303000860D3
S113068801F0F6FD30B149F24061C4F202014FF4C1
S11306980070086001F006FE68B140F20040C4F240
S11306A800000068C00730B140F20041C4F2000104
S11306B86FF0010008604EF68851CEF20001086818
S11306C840F470000860BFF34F8FBFF36F8FFFF7DC
S10706D8E5FE80BDFA
S11306DC40F20851C5F200014FF4005008604FF489
S11306EC804008604FF4004008604FF4803008608C
S11306FC40F23471C5F200010320086040F23871F5
S113070CC5F20001086040F23C71C5F200010860BA
S10F071C40F24071C5F200010860704713
S113072881B000900098032824D840F20450C5F200
S113073800000068009901F003010D31C840C007AA
S113074860B1009800F0030000F10D010120884019
S113075840F20C51C5F2000108600BE0009800F06B
S1130768030000F10D010120884040F20851C5F250
S10B07780001086001B07047A4
S113078080B582B041F20000CEF200000068C007DC
S113079030B942F23021C2F2000108680130086029
S11307A040F20000C2F2000090F8780010B9A520D1
S11307B0FFF760FE40F20000C2F2000090F87710EC
S11307C0013180F877100078FF2802D19D20FFF7CF
S11307D051FE40F20001C2F200010191087801309B
S11307E0087001F079F80198C06B30B140F2000054
S11307F0C2F20000C06B0068804703F091F801F07A
S11308004DFB40F20000C2F200000078012813D131
S113081040F20000C2F20000406868B140F20000FB
S1130820C2F20000C06B30B140F20000C2F200001E
S1130830C06B806880470CE040F20000C2F2000008
S1130840C06B30B140F20000C2F20000C06B4068DF
S11308508047802080F3118840F20000C2F200003B
S1130860007801281BD140F20000C2F20000406869
S1130870A8B140F20000C2F2000090F8770010B96D
S11308809820FFF7F7FD40F20001C2F2000191F851
S11308907700013881F8770001F07AFA12E040F22B
S11308A00000C2F2000090F8770010B99820FFF71A
S11308B0E1FD40F20001C2F2000191F87700013835
S11308C081F8770040F20001C2F200010878013893
S10F08D00870002080F3118802B080BD85
S11308DC80B588B040F20000C2F2000040781028C5
S11308EC02D39920FFF7C0FD802080F3118840F2D9
S11308FC0001C2F200010291487801304870FFF700
S113090CCBFD42F65430C2F200000190006844F66C
S113091CD351C1F26201A0FB0110800900F044F82C
S113092C4FF0FF30062101F0FFFC019800680390A2
S113093C4FF47A70049000208DF8140040F60520D2
S113094CC0F20000069040F61120C0F2000007909F
S113095C03A803F0F4F801F009FD43F20110C0F20E
S113096C0000FFF763FD44F20110C0F20000FFF732
S113097C67FD44F2A500C0F20000FFF76BFD02987E
S113098C4078102802D39920FFF76EFD40F2000046
S113099CC2F20000417801394170407810B900204E
S10B09AC80F3118808B080BD3E
S11309B480B584B0029002980138B0F1807F02D3EC
S11309C40120039019E0029801384EF21401CEF28A
S11309D4000108604FF0FF300721019101F0A8FCE9
S11309E401994EF21802CEF20002002010604EF279
S11309F41002CEF2000211600390039804B080BD8B
S10F0A044EF21800CEF2000000687047AB
S1130A104EF60450CEF20000006800F0806070478B
S1130A2080B582B08DF807009DF8070001F012FB35
S1070A3002B080BDCF
S1130A3480B544F6CD10C0F2000002F0F1F844F69B
S10F0A44F610C0F2000002F0EBF880BDD8
S1130A5083B002904EF62C50CEF200000068C00F16
S1130A6060B14EF62C51CEF20001086840F000400F
S1130A700860029988690230886173E04EF6245058
S1130A80CEF20000006842F24811C2F20001019166
S1130A9008624EF62850CEF20000007881F8240057
S1130AA04EF63450CEF20000006888624EF62950AB
S1130AB0CEF20000007881F82C004EF63850CEF2C9
S1130AC00000006808634EF62A50CEF20000008849
S1130AD088864EF62C50CEF20000006888634EF6ED
S1130AE03050CEF200000068C8634EF63C50CEF29F
S1130AF000000068086442F22821C2F200010020CC
S1130B00086042F22820C2F20000006800B9F8E749
S1130B100298006842F24811C2F200010091086094
S1130B200298406848600298806888600298C068AB
S1130B30C860029800690861029840694861029897
S1130B40806988610298C069C86142F22821C2F2B2
S1130B5000010020086042F22820C2F20000006870
S10B0B6000B9F8E703B0704787
S1130B6880B588B0079006910592049344F648200E
S1130B78C0F20000019042F24861C2F200014FF451
S1130B8880620023039303F0A6F80199039A0346AD
S1130B9842F2BC10C2F2000002904370437803761C
S1130BA8007E6B461A6042F63B32C2F2000208230A
S1130BB803F0AAFE02990398086141F20402CEF2F6
S1130BC800021268CA60059A0A62079A4A60069A7D
S10F0BD88A60049A4A62087008B080BD6C
S10F0BE481B000900098073001B0704709
S1130BF080B590B0DDF848C00F900E910D920C9323
S1130C00EFF311804FF0200181F31188099042F62F
S1130C104820C2F20000FFF7E5FF0A900A980B9003
S1130C200B9808900E980790079880280AD3079885
S1130C3040F0800008994A1C089208700798C0097F
S1130C400790F1E7079808994A1C089208700898D9
S1130C500B900B9806900D980590059880280AD360
S1130C60059840F0800006994A1C06920870059881
S1130C70C0090590F1E7059806994A1C0692087088
S1130C8006980B900B9804900C9803900398802876
S1130C900AD3039840F0800004994A1C0492087017
S1130CA00398C0090390F1E7039804994A1C04923D
S1130CB0087004980B900B98029012980190019878
S1130CC080280AD3019840F0800002994A1C0292BD
S1130CD008700198C0090190F1E7019802994A1C33
S1130CE00292087002980B900A980B990F9A01F0DF
S10F0CF08FFB099880F3118810B080BDC0
S1130CFC80B582B042F2BC10C2F20000006AA8B106
S1130D0C42F2BC10C2F20000006A006870B142F2F8
S1130D1CBC10C2F20000006A006880470191009088
S1130D2C0099019A0D2001F0F1FC07E041F2040056
S1130D3CCEF2000001680C2001F0B0FC02B080BDC2
S1130D4C80B542F2BC10C2F20000006A68B142F2F3
S1130D5CBC10C2F20000006A406830B142F2BC1010
S10F0D6CC2F20000006A4068804780BDAD
S1130D7880B582B0EFF311804FF0200181F3118820
S1130D88009042F64820C2F20000FFF727FF0190C6
S1130D9842F2BC10C2F20000007850B101990B2253
S1130DA8084601F031FB42F2BC11C2F200010020F6
S10F0DB80870009880F3118802B080BD20
S1130DC480B58CB0EFF311804FF0200181F31188CA
S1130DD4099042F64820C2F20000FFF701FF0A908E
S1130DE40A980B900B98089042F2BC10C2F20000CF
S1130DF440680790079880280AD3079840F0800039
S1130E0408994A1C089208700798C0090790F1E7EA
S1130E14079808994A1C0892087008980B900B9834
S1130E24069042F2BC10C2F2000080680590059856
S1130E3480280AD3059840F0800006994A1C06923B
S1130E4408700598C0090590F1E7059806994A1CAD
S1130E540692087006980B900B98049042F2BC100A
S1130E64C2F2000000690390039880280AD303980F
S1130E7440F0800004994A1C049208700398C00945
S1130E840390F1E7039804994A1C049208700498A7
S1130E940B900B98029000200190019880280AD3AB
S1130EA4019840F0800002994A1C0292087001984B
S1130EB4C0090190F1E7019802994A1C0292087052
S1130EC402980B900A980B99182201F09FFA09983A
S1130ED480F3118842F2BC10C2F20000406A28B1C7
S1130EE442F2BC10C2F20000406A80470CB080BDDC
S1130EF480B590B00F90EFF311804FF0200181F38F
S1130F0411880C9042F64820C2F20000FFF768FEF4
S1130F140D900D980E900E980B900F98006842F265
S1130F24BC11C2F200010969401A0A900A98802887
S1130F340AD30A9840F080000B994A1C0B9208705B
S1130F440A98C0090A90F1E70A980B994A1C0B9273
S1130F5408700B980E900E9809900F98806808906A
S1130F64089880280AD3089840F0800009994A1CFC
S1130F74099208700898C0090890F1E7089809993B
S1130F844A1C0992087009980E900E980F994968A2
S1130F94202201F01FFD0E900D980E99092201F0F4
S1130FA435FA0D980E900E9807900F98006842F247
S1130FB4BC11C2F200010969401A069006988028FF
S1130FC40AD3069840F0800007994A1C07920870D7
S1130FD40698C0090690F1E7069807994A1C0792F7
S1130FE4087007980E900E9805900F98C0680490A6
S1130FF4049880280AD3049840F0800005994A1C78
S1131004059208700498C0090490F1E704980599BE
S11310144A1C0592087005980E900E9803900F9838
S113102400690290029880280AD3029840F0800054
S113103403994A1C039208700298C0090290F1E7CC
S1131044029803994A1C0392087003980E900E9810
S1131054019000200090009880280AD3009840F062
S1131064800001994A1C019208700098C0090090FC
S1131074F1E7009801994A1C0192087001980E90B6
S11310840D980E99152201F0C1F90C9880F311887A
S107109410B080BD57
S113109880B582B0EFF311804FF0200181F31188FD
S11310A8009042F64820C2F20000FFF797FD019035
S11310B801990322084601F0A7F9009880F31188E2
S10710C802B080BD31
S11310CC80B582B0EFF311804FF0200181F31188C9
S11310DC009042F64820C2F20000FFF77DFD01901B
S11310EC01991222084601F08DF9009880F31188B9
S10710FC02B080BDFD
S113110080B586B00590EFF311804FF0200181F394
S11311101188029042F64820C2F20000FFF762FDF7
S113112003900398049004980190059842F2BC112E
S1131130C2F200010969401A0090009880280AD37D
S1131140009840F0800001994A1C019208700098B0
S1131150C0090090F1E7009801994A1C01920870B7
S11311600198049003980499132201F051F902980C
S10B117080F3118806B080BD74
S113117880B582B0EFF311804FF0200181F311881C
S1131188009042F64820C2F20000FFF727FD0190C4
S113119801991422084601F037F9009880F3118860
S10711A802B080BD50
S11311AC80B586B00590EFF311804FF0200181F3E8
S11311BC1188029042F64820C2F20000FFF70CFDA1
S11311CC039003980490049801900598009000985B
S11311DC80280AD3009840F0800001994A1C01929F
S11311EC08700098C0090090F1E7009801994A1C16
S11311FC0192087001980490039804991C2201F040
S10F120C01F9029880F3118806B080BD3F
S113121880B58AB009900891EFF311804FF020014E
S113122881F31188059042F64820C2F20000FFF7C6
S1131238D5FC06900698079007980490099803909F
S1131248039880280AD3039840F0800004994A1C24
S1131258049208700398C0090390F1E7039804996D
S11312684A1C0492087004980790079802900898FA
S11312780190019880280AD3019840F080000299CF
S11312884A1C029208700198C0090190F1E701987C
S113129802994A1C029208700298079006980799C6
S11312A81C2201F0B1F8059880F311880AB080BDBA
S11312B880B582B0EFF311804FF0200181F31188DB
S11312C8009042F64820C2F20000FFF787FC019024
S11312D801991122084601F097F8009880F31188C3
S10712E802B080BD0F
S11312EC80B586B00590EFF311804FF0200181F3A7
S11312FC1188029042F64820C2F20000FFF76CFC01
S113130C039003980490059842F2BC11C2F20001B8
S113131C0969401A0590049801900598009000986A
S113132C80280AD3009840F0800001994A1C01924D
S113133C08700098C0090090F1E7009801994A1CC4
S113134C019208700198049003980499082201F002
S10F135C59F8029880F3118806B080BD97
S113136880B586B00590EFF311804FF0200181F32A
S11313781188029042F64820C2F20000FFF72EFCC2
S1131388039003980490059842F2BC11C2F200013C
S11313980969401A059004980190059800900098EE
S11313A880280AD3009840F0800001994A1C0192D1
S11313B808700098C0090090F1E7009801994A1C48
S11313C80192087001980490039804991D2201F071
S10F13D81BF8029880F3118806B080BD59
S11313E480B586B00590EFF311804FF0200181F3AE
S11313F41188029042F64820C2F20000FFF7F0FB85
S1131404039003980490059842F2BC11C2F20001BF
S11314140969401A05900498019005980090009871
S113142480280AD3009840F0800001994A1C019254
S113143408700098C0090090F1E7009801994A1CCB
S1131444019208700198049003980499042200F00E
S10F1454DDFF029880F3118806B080BD13
S113146080B582B0EFF311804FF0200181F3118831
S1131470009042F64820C2F20000FFF7B3FB01904F
S113148001990522084600F0C3FF009880F31188F3
S107149002B080BD65
S113149480B586B00590EFF311804FF0200181F3FD
S11314A41188029042F64820C2F20000FFF798FB2C
S11314B4039003980490059842F2BC11C2F200010F
S11314C40969401A059004980190059800900098C1
S11314D480280AD3009840F0800001994A1C0192A4
S11314E408700098C0090090F1E7009801994A1C1B
S11314F4019208700198049003980499062200F05C
S10F150485FF029880F3118806B080BDBA
S113151080B58AB009900891EFF311804FF0200153
S113152081F31188059042F64820C2F20000FFF7CB
S113153059FB069006980790099842F2BC11C2F232
S113154000010969401A09900798049009980390CA
S1131550039880280AD3039840F0800004994A1C19
S1131560049208700398C0090390F1E70398049962
S11315704A1C0492087004980790079802900898EF
S11315800190019880280AD3019840F080000299C4
S11315904A1C029208700198C0090190F1E7019871
S11315A002994A1C029208700298079006980799BB
S11315B0072200F02DFF059880F311880AB080BD42
S11315C080B58AB08DF8270042F20820C2F20000EC
S11315D00068002874D042F20820C2F200000068BB
S11315E008900020079007989DF82710884209D298
S11315F0089800690890089800B903E0079801303A
S11316000790F0E70898002852D0EFF311804FF0CC
S1131610200181F31188049042F64820C2F20000B0
S1131620FFF7E0FA059005980690069803909DF858
S113163027000290029880280AD3029840F0800084
S113164003994A1C039208700298C0090290F1E7BA
S1131650029803994A1C039208700398069006980E
S11316600190089880680090009880280AD3009818
S113167040F0800001994A1C019208700098C0094A
S11316800090F1E7009801994A1C019208700198B2
S11316900690069808990968802201F09DF9069041
S11316A005980699162200F0B3FE049880F3118879
S11316B0089828B10898C06810B10898C068804795
S10716C00AB080BD2B
S11316C480B582B042F20820C2F20000006888B1FA
S11316D442F20820C2F20000006801900198C06838
S11316E410B10198C068804701980069019001987D
S10B16F40028F3D102B080BD0F
S11316FC80B586B0059002F088F800200490039021
S113170C02900190009005980090059802F0C8FF93
S113171C0190059800690290059801F048FE039029
S113172C0598806A04906846FFF7DEFB02F078FEA9
S107173C06B080BDB2
S113174080B582B002F067F840F20000C2F20000F7
S113175080690190019830B10198FFF7CFFF01989B
S113176000680190F6E740F20000C2F20000406E0B
S11317700090009840B100994868896801F0B2FA75
S1131780009800680090F4E702F050FE02B080BDBB
S113179080B582B040F20000C2F2000090F87800F8
S11317A010B9A520FEF766FE40F20001C2F2000166
S11317B0019191F87700013081F8770000F08CF8FE
S11317C00198802181F311880178013101704178F9
S11317D001314170C06B30B140F20000C2F2000030
S11317E0C06B0068804742F2EC10C2F2000000684F
S11317F028B142F2EC10C2F200000068804740F2C7
S11318000000C2F200000078012813D140F2000069
S1131810C2F20000406868B140F20000C2F2000069
S1131820C06B30B140F20000C2F20000C06B8068AF
S113183080470CE040F20000C2F20000C06B30B1FF
S113184040F20000C2F20000C06B4068804740F2E2
S11318500000C2F20000417801394170007801288B
S11318601BD140F20000C2F200004068A8B140F26F
S11318700000C2F2000090F8770010B99820FEF73B
S1131880F9FD40F20001C2F2000191F8770001383D
S113189081F8770000F07CFA12E040F20000C2F216
S11318A0000090F8770010B99820FEF7E3FD40F2AD
S11318B00001C2F2000191F87700013881F8770045
S11318C040F20001C2F200010878013808700020DB
S10B18D080F3118802B080BD11
S11318D880B501F096FC042808D80146A320DFE867
S11318E801F0090708030300A72003E0A82001E08A
S10F18F808BDA620BDE80840FEF7B8BDFE
S113190480B501F080FC042807D80146A620DFE84E
S113191401F003030706030008BDA82000E0A72084
S10B1924BDE80840FEF7A4BD74
S113192C002B35D129B9B0FBF2FC0CFB120260463A
S113193C7047914215D22DE9F041B2FA82F39A40E4
S113194C9940D3F1200C30FA0CFC51EA0C0198406C
S113195C00F04EF8280036FA03F200210023BDE80B
S113196CF081F0B5B1FBF2FC0CFB1211B2FA82F36C
S113197C9A409940D3F1200630FA06F63143984048
S113198C00F036F8614628003200DA400023F0BD3E
S113199CF3B5B3FA83FC49085FEA300013FA0CF38D
S11319ACDCF1200432FA04F423430CB41A0000F0E2
S11319BC1FF80CBC33FA0CF3DCF11F0C35FA0CF5E4
S11319CC18BF013D03BCA5FB026705FB0377801B15
S11319DCB941904271EB030C05D3821A71EB0303EA
S11319EC681C0021F0BD02000B0028000021F0BD92
S11319FC940D4FF6C2752D02B5FBF4F4D60A0136DC
S1131A0C04FB04F5A5FB0656F64306EB0416550831
S1131A1C32BF00277708013505FB1677A6FB07476D
S1131A2C7F0807EBC63714001500E7FB02457F1B44
S1131A3C4D1C0400E7FB014505FB1206A64284BFBE
S1131A4C013DB618964224BF0135B61A704700BF43
S1131A5C5AB3844690EA01039B071FD1830707D02E
S1131A6C11F8013B00F8013B013AF7D11CE0844624
S1131A7C203A09D32DE9F007B1E8F807A0E8F807F4
S1131A8C203AF9D2BDE8F0071C3205D451F8043BD6
S1131A9C40F8043B043AF9D2043205D011F8013B66
S10F1AAC00F8013B013AF9D16046704794
S1131AB800220B0011001A0084465AB3830704D08D
S1131AC800F8011B013AF9D124E0C9B241EA012125
S1131AD841EA0141202A11D3203A2DE9F0030B46AB
S1131AE80C460D460E460F4688468946A0E8FA037A
S1131AF8203AFBD2BDE8F00320320BD0042A05D3E8
S1131B0840F8041B043A05D0042AF9D200F8011B52
S10B1B18013AFBD1604670475D
S1071B20200000009D
S1131B24692C000099100000CD100000FD1600007F
S1131B34ED120000E5130000611400009514000088
S1131B4411150000B9120000D9230000A9260000D1
S1131B5419270000BD270000F10B00006D2D0000C3
S1131B640111000079110000AD11000019120000E8
S10F1B746913000095280000E52C000017
S10B1B800D48000041170000AC
S1071B8858CA000033
S1071B8C034A000004
S1131B9003480449091A08B502F0EEFE0CBC1847C4
S10B1BA0602B002060300020DE
S1131BA81EF0040F0CBFEFF30880EFF3098001491E
S10B1BB808470000510A000077
S1131BC00321044802680A430260034802680A4386
S10F1BD0026070472405004054050040EA
S1131BDCF0B400EB4003DFF8800000EBC30000F12D
S1131BEC18063069F768756887422ED3B368DC1B16
S1131BFC631E934212D37D19D01900BF11F8013B17
S1131C0C05F8013B013A05D011F8013B05F8013BFD
S1131C1C013AF3D1F0600120F0BC7047C018904237
S1131C2C17D37819121B11F8013B00F8013B013C46
S1131C3CF9D1141C05D011F8013B05F8013B013A0C
S1131C4CF9D1F4600120F0BC7047C01B01389042FC
S10F1C5CD1D20020F0BC7047501F0020C3
S1131C684E48816859B91EF0100F1CBF08B015E022
S1131C784B490A6822F001020A601AB00EE0EFF339
S1131C8809821EF0100F03D1A2F1400282EC108ADF
S1131C98A2F128024A60036882E8F84F414988475C
S1131CA88168C1B14A6892E8F84F036002F12802DA
S1131CB81EF0100F01D1B2EC108A82F309889069E2
S1131CC83949884202DB394A904203DB4FF000016C
S1131CD881F311887047364836490968401A80F3F9
S1131CE808884FF08071C161334981617FF0060E25
S1131CF8704701BC31488047204602BC88475DF8DC
S1131D0804EB2F490847002809D0EFF314816A46E9
S1131D187346A0E8FE0F80EC108A2A4880472A48B8
S1131D2824490968401A20F0070080F308884FF016
S1131D3800011A48417081F3118862B623494FF0B3
S1131D4880520A60BFF34F8FBFF36F8FFEE7B0E88E
S1131D58FE0F81F31488BFF36F8F95469E4690EC6F
S1131D68108A704703680CB44FF00001417081F386
S1131D78118816494FF080520A60BFF34F8FBFF3A2
S1131D886F8F0CBC0360704710494FF080520A6093
S1131D98BFF34F8FBFF36F8F704700000000002020
S1131DA834EF00E08F3400006D1D00008E1D00002C
S1131DB8E0FF0320201B0000752300006942000097
S1131DC8D53800009B3800000000042004ED00E032
S1131DD880B586B001F01BFD694602200490886036
S1131DE84FF400700590486041F68840C2F2000044
S1131DF8086042F2A000C2F2000044F63821C0F2A2
S1131E08000140F28123C0F20003642202F03EFB89
S1131E18049A059869468A60486041F68820C2F2A7
S1131E280000086042F24C00C2F2000044F640216F
S1131E38C0F2000140F29123C0F20003322202F002
S1131E4825FB049A059869468A60486041F688002B
S1131E58C2F20000086041F6F870C2F2000044F6CD
S1131E68A611C0F2000141F68963C0F200033122D1
S1111E7802F00CFB002001F0B4FD06B080BDAA
S1051E86FEE771
S1131E8880B50220FEF74CFC4FF4FA7002F0BCFB5C
S1051E98F7E766
S1051E9AFEE75D
S1131E9C80B582B001F01BFD002850D042F2242002
S1131EACC2F20000006838B900F04CF842F2242168
S1131EBCC2F200010120086042F22C20C2F20000A0
S1131ECC006810F8170CD0B342F20C20C2F20000D8
S1131EDC006870B142F20C20C2F2000001680139B2
S1131EEC0160006828B942F24021C2F200010120CD
S1131EFC086042F24020C2F200000068D8B142F2FD
S1131F0C2C20C2F20000009001680020019001F81E
S1131F1C170C42F24021C2F20001086042F2102177
S1131F2CC2F20001086000F047F8009901980968B2
S1131F3C01F8180C03E0FEF7ADF900F04FF802B00D
S1051F4C80BD52
S1051F4EFEE7A8
S1131F5081B04EF60850CEF2000000680090009860
S1131F60006842F22C21C2F2000108600A680020D5
S1131F7002F8170C0B68082203F8022C0B681222D3
S1131F8003F8032C0A6802F8180C0A6802F8160C05
S1131F900B68522203F8012C0A68153A42F2002316
S1131FA0C2F200031A600968203942F20422C2F224
S1131FB00002116042F21021C2F20001086001B077
S1051FC0704764
S1051FC2FEE734
S1131FC480B542F2FC10C2F20000006840B142F253
S1131FD4FC10C2F2000000688047002800D4F6E731
S1051FE480BDBA
S1051FE6FEE710
S1131FE880B542F22C20C2F20000006810F8160CEA
S1131FF850BB42F20C21C2F200010020086042F2F8
S11320081020C2F20000006868B142F64330C2F200
S113201800000078FEF7B2F942F21021C2F2000182
S11320280020086010E042F2F410C2F200000068D8
S113203850B1FEF779F938B142F2F410C2F2000057
S10D20480068804700F05EF880BDD8
S1052052FEE7A3
S113205480B582B08DF8070001F03DFC00284AD019
S113206442F22420C2F20000006838B9FFF76EFF80
S113207442F22421C2F200010120086042F22C2021
S1132084C2F20000006810F8170C68B342F22C2066
S1132094C2F20000006810F8160CB8B9FEF746F94D
S11320A430B19DF80700FEF76BF900F02DF80CE051
S11320B442F21021C2F20001012008609DF80700D9
S11320C442F64331C2F2000108700CE042F21021DE
S11320D4C2F20001012008609DF8070042F6433172
S11320E4C2F20001087005E001F093FB01F082FEE6
S11320F402F09AF905E001F08CFB01F07BFE02F09A
S109210493F902B080BD56
S105210AFEE7EA
S111210C42F21421C2F2000100200860704764
S105211AFEE7DA
S113211C81B040F23010C1F20000006808281FD1D1
S113212C40F23410C1F20000006818B901208DF897
S113213C030018E040F23410C1F2000000680128DA
S113214C03D101208DF803000DE040F23410C1F2EC
S113215C00000068022803D101208DF8030002E07E
S111216C01208DF803009DF8030001B07047B8
S105217AFEE77A
S113217C81B040F23010C1F20000006808281FD171
S113218C40F23410C1F20000006818B901208DF837
S113219C030018E040F23410C1F20000006801287A
S11321AC03D101208DF803000DE040F23410C1F28C
S11321BC00000068022803D101208DF8030002E01E
S11121CC01208DF803009DF8030001B0704758
S10521DAFEE71A
S11321DC81B040F23010C1F200000068082809D127
S11321EC40F23410C1F20000006818B901208DF8D7
S11321FC030002E000208DF803009DF8030001B0F9
S105220C704715
S105220EFEE7E5
S113221081B040F23010C1F200000068082809D1F2
S113222040F23410C1F20000006818B901208DF8A2
S1132230030002E000208DF803009DF8030001B0C4
S10522407047E1
S1052242FEE7B1
S113224481B040F23010C1F200000068082809D1BE
S113225440F23410C1F20000006818B901208DF86E
S1132264030002E000208DF803009DF8030001B090
S10522747047AD
S1052276FEE77D
S113227881B040F23010C1F200000068082809D18A
S113228840F23410C1F20000006818B901208DF83A
S1132298030002E000208DF803009DF8030001B05C
S10522A8704779
S10522AAFEE749
S11322AC81B040F23010C1F20000006808281FD140
S11322BC40F23410C1F20000006818B901208DF806
S11322CC030018E040F23410C1F200000068012849
S11322DC03D101208DF803000DE040F23410C1F25B
S11322EC00000068022803D101208DF8030002E0ED
S11122FC01208DF803009DF8030001B0704727
S105230AFEE7E8
S113230C81B00090009803280BD8009800F00300CB
S113231C00F10D010120884040F20C51C5F200017E
S109232C086001B07047D7
S1052332FEE7C0
S113233482B08DF8070000919DF90700002809D4A4
S1132344009840019DF907104EF20042CEF20002BB
S113235488540AE0009840019DF8071001F00F0129
S11123644EF61452CEF20002885402B07047B6
S1052372FEE780
S1052374FEE77E
S1052376FEE77C
S113237880B541F20000CEF2000000688001002818
S11323880ED441F20000CEF200000068C00738B94C
S113239841F20001CEF20001086840F00100086033
S11323A842F65430C2F20000016841F68032C0F2AD
S11323B8000240F63523C0F200030846FEF7D0FBBE
S11123C841F62430C0F2000002F042FA80BD5B
S10523D6FEE71C
S11323D880B584B00390EFF311804FF0200181F3AE
S11323E81188019042F64820C2F20000FEF7F6FB7D
S11323F802900299039A084600F006F8019880F3BF
S1092408118804B080BD40
S105240EFEE7E3
S113241080B58AB009900891079242F2BC10C2F2CA
S113242000000078012800D117E042F2BC10C2F28B
S11324300000007800B90BE142F2BC10C2F20000C7
S11324400078022809D100F005FD42F2BC10C2F266
S113245000000078012800D0FAE007981F2809D866
S113246042F2BC10C2F20000C0690799C840C0071C
S113247000B1EDE00798172806D8079809994A1E75
S1132480099201F8010CA1E008980999401A0690F4
S1132490069880280FD30698C00909994A1E099204
S11324A001F8010C069840F0800009994A1E09922F
S11324B001F8010C05E0069809994A1E099201F8F1
S11324C0010C07987E2806D8079809994A1E099294
S11324D001F8010C7AE00798800B78B90798C009D5
S11324E009994A1E099201F8010C079840F08000EE
S11324F009994A1E099201F8010C67E00798400DFA
S1132500C0B90798800B09994A1E099201F8010C79
S11325100799802040EAD11009994A1E099201F8CE
S1132520010C079840F0800009994A1E099201F8AD
S1132530010C4BE00798000F00BB0798400D099968
S11325404A1E099201F8010C0799802040EA913152
S1132550099A531E099302F8011C079940EAD11005
S113256009994A1E099201F8010C079840F080006D
S113257009994A1E099201F8010C27E00798000FF7
S113258009994A1E099201F8010C0799802040EA32
S11325905151099A531E099302F8011C079940EA04
S11325A09131099A531E099302F8011C079940EAD4
S11325B0D11009994A1E099201F8010C079840F0BC
S11325C0800009994A1E099201F8010C41F20400A5
S11325D0CEF2000000680590059842F2BC11C2F2E8
S11325E00001C968401A0490089802900498019068
S11325F0019880280AD3019840F0800002994A1C6F
S1132600029208700198C0090190F1E701980299BB
S11326104A1C029208700298089042F2BC10C2F25E
S1132620000040780999089A521AFFF7D7FA0390E4
S1132630039830B1059842F2BC11C2F20001C8609F
S113264006E042F2BC11C2F20001087801300870C1
S113265042F2BC12C2F20002107E41F65071C2F284
S11326600001603100EB400001EBC000C068127E45
S113267002EB420201EBC2010969401A88B142F23D
S1132680BC10C2F20000807858B942F2BC11C2F208
S1132690000100910120887000F074FB0099002073
S10926A088700AB080BD41
S10526A6FEE749
S11326A880B588B007900691EFF311804FF02001B0
S11326B881F31188039042F64820C2F20000FEF725
S11326C88DFA049004980590059802900698019054
S11326D8019880280AD3019840F0800002994A1C86
S11326E8029208700198C0090190F1E701980299D3
S11326F84A1C029208700298059004980599079A52
S1112708FFF782FE039880F3118808B080BDAD
S1052716FEE7D8
S113271880B58AB0099008910792EFF311804FF0C1
S1132728200181F31188049042F64820C2F2000087
S1132738FEF754FA059005980690069803900898B1
S11327480290029880280AD3029840F080000399E6
S11327584A1C039208700298C0090290F1E7029893
S113276803994A1C039208700398069006980190EE
S113277807980090009880280AD3009840F08000B9
S113278801994A1C019208700098C0090090F1E769
S1132798009801994A1C01920870019806900598BE
S11327A80699099AFFF730FE049880F311880AB055
S10527B880BDDE
S10527BAFEE734
S11327BC80B58EB00D900C910B920A93EFF31180AF
S11327CC4FF0200181F31188079042F64820C2F2A1
S11327DC0000FEF701FA08900898099009980690F1
S11327EC0C980590059880280AD3059840F0800031
S11327FC06994A1C069208700598C0090590F1E7E1
S113280C059806994A1C069208700698099009982E
S113281C04900B980390039880280AD3039840F0F3
S113282C800004994A1C049208700398C009039010
S113283CF1E7039804994A1C0492087004980990CF
S113284C099802900A980190019880280AD301985B
S113285C40F0800002994A1C029208700198C00949
S113286C0190F1E7019802994A1C029208700298AF
S113287C0990089809990D9AFFF7C4FD079880F3FD
S109288C11880EB080BDAE
S1052892FEE75B
S113289480B592B0DDF854C0DDF850C011901091A9
S11328A40F920E93EFF311804FF0200181F31188FE
S11328B40B9042F64820C2F20000FEF791F90C9006
S11328C40C980D900D980A901098099009988028F6
S11328D40AD3099840F080000A994A1C0A920870A5
S11328E40998C0090990F1E709980A994A1C0A92BF
S11328F408700A980D900D9808900F9807900798FF
S113290480280AD3079840F0800008994A1C08924A
S113291408700798C0090790F1E7079808994A1CBA
S11329240892087008980D900D9806900E980590DA
S1132934059880280AD3059840F0800006994A1C1B
S1132944069208700598C0090590F1E70598069960
S11329544A1C0692087006980D900D9804901498D9
S11329640390039880280AD3039840F080000499C4
S11329744A1C049208700398C0090390F1E7039871
S113298404994A1C0492087004980D900D980290BE
S113299415980190019880280AD3019840F080008A
S11329A402994A1C029208700198C0090190F1E747
S11329B4019802994A1C0292087002980D900C988E
S11329C40D99119AFFF722FD0B9880F3118812B028
S10529D480BDC0
S10529D6FEE716
S11329D886B0059004910392049801900598411CCF
S11329E8059102900398812801D3802003900399CC
S11329F8481E03900020009029B10498007800280C
S1132A0818BF012000900098C00740B10498411CE9
S1132A180491007805994A1C05920870E7E7049820
S1112A280199401A02990870059806B070478B
S1052A36FEE7B5
S1132A3880B590B042F2BC10C2F2000003900121AC
S1132A480170EFF311824FF0200181F31188019294
S1132A5801990F91407844F6B011C0F200010A229E
S1132A680292FFF7B7F802980F9981F31188FFF7DC
S1132A78AFFCEFF311804FF0200181F311880C9023
S1132A8842F64820C2F20000FEF7A8F8014603986F
S1132A980D910D990E910E990B9140680A900A9820
S1132AA880280AD30A9840F080000B994A1C0B929C
S1132AB808700A98C0090A90F1E70A980B994A1C09
S1132AC80B9208700B980E900E98099042F2BC1065
S1132AD8C2F2000080680890089880280AD30898F1
S1132AE840F0800009994A1C099208700898C009A6
S1132AF80890F1E7089809994A1C099208700998FE
S1132B080E900E98079042F2BC10C2F200000069C1
S1132B180690069880280AD3069840F08000079902
S1132B284A1C079208700698C0090690F1E70698AF
S1132B3807994A1C0792087007980E900E980590FA
S1132B4800200490049880280AD3049840F0800058
S1132B5805994A1C059208700498C0090490F1E785
S1132B68049805994A1C0592087005980E900D98CA
S1132B780E991822FFF748FC0C9880F3118842F24A
S1132B88BC10C2F20000406A28B142F2BC10C2F282
S1132B980000406A8047FEF7ADF8FEF7D3F800F06E
S1092BA803F810B080BD2B
S1052BAEFEE73C
S1132BB080B586B0EFF311804FF0200181F31188C6
S1132BC0039042F64820C2F20000FEF70BF804908E
S1132BD0049805900598029042F64830C2F200002D
S1132BE000780190019880280AD3019840F0800071
S1132BF002994A1C029208700198C0090190F1E7F9
S1132C00019802994A1C029208700298059004984F
S1132C1005991B22FFF7FCFB039880F3118806B08B
S1052C2080BD71
S1052C22FEE7C7
S1132C2480B584B00390EFF311804FF0200181F359
S1132C341188009042F64820C2F20000FDF7D0FF4C
S1132C440190019803998022FFF7C4FE0290019831
S1132C5402990E22FFF7DAFB009880F3118804B07E
S1052C6480BD2D
S1052C66FEE783
S1132C6880B586B0EFF311804FF0200181F311880D
S1132C78029042F64820C2F20000FDF7AFFF03902D
S1132C88039804904EF60450CEF2000000686FF3E7
S1132C985F2005900498019005980090009880287A
S1132CA80AD3009840F0800001994A1C01920870E8
S1132CB80098C0090090F1E7009801994A1C019214
S1132CC8087001980490039804990222FFF79CFB6A
S10D2CD8029880F3118806B080BD55
S1052CE2FEE707
S1132CE480B588B007900691EFF311804FF020016E
S1132CF481F31188039042F64820C2F20000FDF7E4
S1132D046FFF04900498059005980290079842F286
S1132D14BC11C2F200010969401A0190019880288B
S1132D240AD3019840F0800002994A1C0292087068
S1132D340198C0090190F1E7019802994A1C029292
S1132D44087002980590059806998022FFF742FEC0
S1132D540590049805991922FFF758FB039880F30A
S1092D64118808B080BDD7
S1052D6AFEE77E
S1132D6C81B00090009842F2BC11C2F200010969D2
S1092D7C401A01B070478B
S1052D82FEE766
S1132D8480B584B042F2BC10C2F20000007E0DF1A2
S1132D940F01012201F078FD02900298002854D01A
S1132DA49DF80F0001460191012818D001980228CA
S1132DB418D00198032818D00198042818D0019831
S1132DC4052818D00198062818D00198072818D087
S1132DD401987F282AD00198802815D027E0FFF78E
S1132DE429FE32E0FDF7C6FF2FE0FDF785FF2CE056
S1132DF4FDF7AAFF29E0FDF7E3FF26E0FFF7D6FE7F
S1132E0423E0FEF75DFC20E042F2BC10C2F20000B5
S1132E14007E0DF10F01012201F036FD02900298AB
S1132E2418B19DF80F00FEF7C9FB0EE00DE09DF804
S1132E340F00802809DB42F2BC10C2F20000007EBD
S1112E440DF10F01012201F01FFD04B080BD4D
S1052E52FEE795
S1132E5480B58CB001208DF819000DF119000130F2
S1132E6405900598049042F2BC10C2F20000406937
S1132E740390039880280AD3039840F080000499AF
S1132E844A1C049208700398C0090390F1E703985C
S1132E9404994A1C049208700498059041F20400B1
S1132EA4CEF2000000680B900B9842F2BC11C2F2FF
S1132EB40001C968401A0A90059802900A98019082
S1132EC4019880280AD3019840F0800002994A1C92
S1132ED4029208700198C0090190F1E701980299DF
S1132EE44A1C029208700298059042F2BC10C2F285
S1132EF400004078059A0DF11901521AFEF76CFE90
S1132F040990099848B10B9842F2BC11C2F200012D
S1132F14C86008780138087006E042F2BC11C2F2B5
S1112F24000148690130486109980CB080BD75
S1052F32FEE7B4
S1132F3470B542F64530C2F200000178092923D85D
S1132F44DFE801F005242F4147687074859142F24B
S1132F544621C2F20001098839B942F64731C2F266
S1132F6400010978002900F0C0800121017042F6B3
S1132F744630C2F200008C24017042F24420C2F2B2
S1132F84000000210180B6E00024B4E042F24621AE
S1132F94C2F20001ED240988002914BF022107218B
S1132FA4A8E042F24621C2F200010C88F02CC0F0E1
S1132FB49580F02141EA142442F64E31C2F2000114
S1132FC40C70032196E042F24621C2F2000104226D
S1132FD425E042F24422C2F2000241F688661388D4
S1132FE4C2F2000642F2462CC2F2000C42F64E35FE
S1132FF4C2F20005F45C2E78BCF80010013313808F
S113300432192A709AB28A4275D10021ACF80010A0
S113301405216FE042F64E31C2F2000106220C781B
S1133024027068E0002101708D2464E042F64731A7
S1133034C2F2000108220B780270087842F64E317D
S1133044C2F200015A1C0A700130C4B253E042F6C1
S11330544E31C2F2000109220B78027003F14300DD
S11330640870432447E042F22021C2F2000142F2F4
S11330744422C2F2000209681388CC5C42F6473148
S1133084C2F2000101330E7813809AB2B2421ED107
S113309405220270802080F31188002542F23C2628
S11330A4C2F200060D70306818B1306800F05CFBA1
S11330B4356040F20005C2F200056878102824BF88
S11330C49920FDF7D5F9687808B980F3118842F698
S11330D44E30C2F20000017821440BE042F64E3136
S11330E4C2F200010C70042104E042F64630C2F23C
S10D30F40000CC430170204670BDBB
S10530FEFEE7E7
S113310070B542F64B35C2F2000504462878002813
S11331101CBFB420FDF7AEF942F64936C2F20006F0
S1133120012130782970052862D8DFE800F0031304
S113313017284853ED2C5BD142F64D30C2F2000003
S1133140002101700120307042F64A30C2F20000C2
S113315001704DE08C2C49D1022048E0A4F1090013
S1133160C0B2F72842D942F64C30C2F200000470D3
S113317042F64430C2F200000470032037E042F605
S11331804D30C2F200000178072906D840F28002CF
S1133190C2F200024B1C5454037042F64C30C2F28B
S11331A0000042F644320178C2F20002214413784E
S11331B00170581E107000061AD1042017E042F660
S11331C04C30C2F2000001782144017008060DD190
S11331D005200CE08D2C09D100F024FE30B142F220
S11331E04621C2F20001088000F068FF0020307020
S10931F00020287070BDF0
S10531F6FEE7EE
S10531F8FEE7EC
S10531FAFEE7EA
S10531FCFEE7E8
S10531FEFEE7E6
S1053200FEE7E3
S1053202FEE7E1
S1053204FEE7DF
S1053206FEE7DD
S1053208FEE7DB
S113320AEFF30580002808BF704720F00101022966
S113321A1BD00E2804BF042070470F2802D94EF28F
S113322AF0310BE0011F0B290FD889B240F687123F
S113323A22FA01F1C90708D04EF61451CEF2000160
S111324A4056002844BF012070470220704700
S10D32584FF60040C2F20300704775
S113326210B50446C06C98B142F2E411C2F20001F6
S11332720968884740F20000C2F200008068A04258
S113328218BF10BD42F23820C2F2000000210160D2
S105329210BD69
S113329410B500F0F1FE044600F0EEFE40EA0440EE
S10532A410BD57
S11332A642F24621C2F200010A88C72A88BF704743
S11332B641F6886CC2F2000C4FEA10230CF8023077
S11332C602F101030B801EBF0CF80300901C08805A
S10532D670473B
S11332D810B540F20004C2F20004E06B00281EBFDF
S11332E8816A40F23B108847FFF78BFF012801BF32
S11332F894F877000028A420FDF7B8F8FEF7FEFA42
S1133308E06B38B1C26C44F69011C0F2000140F28F
S11133183B10904744F69010C0F2000010BD28
S113332610B540F20004C2F20004E06B00281EBF90
S1133336816A40F23D108847FFF764FF012801BF08
S113334694F877000028A420FDF791F8FEF7D7FA41
S1133356E06B38B1C26C44F69F11C0F2000140F232
S11133663D10904744F69F10C0F2000010BDC9
S113337410B540F20004C2F20004E06B00281EBF42
S1133384816A40F23F108847FFF73DFF012801BFDF
S113339494F877000028A420FDF76AF8FEF7B0FA41
S11333A4E06B28B1C26C40F23F104CF658219047B0
S10933B44CF6582010BD88
S11333BA70B540F20005C2F200050446E86B38B164
S11333CAC66AC16B2046884701464FF4A170B047CC
S11333DAFFF716FF012801BF95F877000028A420FB
S11333EAFDF743F8FEF789FA002C08BFAC68002CF5
S11333FA04BF8020FDF739F894F853000F281CBF46
S113340A8020FDF732F8E46AE86B20B1C26C4FF40D
S10D341AA17021469047204670BDC2
S113342470B540F20005C2F200050446E86B38B1F9
S1133434C66AC16B20468847014640F24310B04730
S1133444FFF7E1FE012801BF95F877000028A420C6
S1133454FDF70EF8FEF754FA002C08BFAC68002CF4
S113346404BF8020FDF704F894F853000F281CBF10
S11334748020FCF7FDFFA46AE86B20B1C26C40F223
S10D3484431021469047204670BD16
S113348E2DE9F04140F20004C2F2000400256570FB
S113349E01202070802080F31188606B50B1617818
S11334AE013161708047607884F87A50C4E90D5513
S11334BE0138607085F31188FFF7C7FE0078CD28B8
S11334CE1CBF7D20FCF7CFFFA06898B1C16A0978B4
S11334DECD2904D07820FCF7C6FFA06850B105466C
S11334EE55F8441F31B140682968096888476D68EA
S11334FE002DF9D194F87C00B8B1A0682179002987
S113350E94F87B1080F851100FD0802080F311882E
S113351EA1680020207180F3118800291CBF0B685C
S113352E002B40F0FA8080F3118894F87900E8B10A
S113353EC0070FD000F073FB42F21C21C2F200014F
S113354E0968081A06D594F8790010F0FE0084F87C
S113355E79000BD001F00FF9A16800291FBF226F6B
S113356E8B6B821A1A4418BF8A632067A06830B125
S113357E90F85010002902BF416B01314163E0699C
S113358E98B3802686F31188E5698DB34FF0000851
S113359E95F8507067B378070FD5E868E16A411A59
S11335AE002904DD216B411A48BF206305E028463B
S11335BE00F0D5F895F85000B8B107F0FB001028CC
S11335CE09D1A8688068406890F8501019B9296923
S11335DE0069884209D12868E06188F3118886F36E
S11335EE1188E569002DD3D102E0802080F3118883
S11335FE6079B8B300266FF0004880276671E06AE0
S113360EA16A4044206300291CBF2046884786F3E4
S113361E1188A5690DB387F31188E06918B10069A3
S113362E296981421BD395F85000400711D5E868EB
S113363EE16A411A002908DC284600F090F887F365
S113364E118895F8500050B1E868216B411A48BFB3
S113365E206386F311882D68DCE787F3118860797F
S113366E0028CBD16060E569002D45D095F8500057
S113367EC0B1A86880684668306A316801603168F4
S113368E002918BF08622969E06B316100281EBF4A
S113369EC16830468847012060703046294600F0E4
S11336AE6AFDE661E069A06018B98020FCF7DBFED4
S11336BEA06890F853100F2903D08020FCF7D3FE96
S11336CEA068054655F8441F39B140682968496811
S11336DE88476D68002DF9D1A06890F85120E16BF0
S11336EE84F87C2084F87B2011B149698847A0684E
S11336FE016B013101630AE0E06B00281CBF406AD4
S113370E8047A4F87B50A560257085F3118840F29C
S113371E0000C2F20000BDE8F0810F691A69BA42D6
S113372E7FF401AF1A461B6813B11E69BE42F9D06D
S113373E802383F311880B68E7698F4208BFE36126
S113374E0E6A336017681E620A620F60002F18BF7C
S111375E396292F85230116082F85130E3E67D
S113376C38B540F20004C2F200040546E06B0028B0
S113377C1EBFC16928468847A96841B103C9E26ADA
S113378CEA60002818BF41600022AA60086095F81E
S113379C500010F0030085F8500000D038BDE069EB
S11337AC18B102692969914220D9E5612078002871
S11337BC4FF0010001D060710CE0E16B207021B17D
S11337CCA0680A6A90F8501090472046FEF7C8FA91
S11337DC002020706078102824BF9920FCF744FE48
S11337EC60780028DAD180F3118838BDA842DDD086
S11337FC914218BF38BD2A461268002AEAD01369D0
S10D380C9942E7D18242F7D1CFE7D9
S113381610B540F20004C2F200042078FF2804BF69
S11138269D20FCF724FE20780130207010BD98
S113383410B540F20004C2F200046078102824BFDA
S11338449920FCF715FE802080F31188607894F8A1
S113385479100130607029B9012084F8790000F0EE
S11338648FFF2067E06A41F28831084461781029A7
S113387442F21C21C2F20001086024BF9920FCF723
S1133884F7FD6078013860706078002818BF10BDB7
S109389480F3118810BD51
S113389A70B5FFF7DCFC40F20006C2F20006F168DC
S11338AA05464C6800F097FA291B0D18F068016F59
S11338BA8D4203D9FB20FCF7D8FDF068C06E21467F
S10D38CA2A46BDE87040FEF7C4B8BA
S10938D49B20FCF7CDBDB2
S11338DA10B540F20004C2F20004E06B00281EBFD7
S11338EA816A4FF4AC708847FFF78AFC012801BF4C
S11338FA94F877000028A420FCF7B7FDFDF7FDFF34
S113390AE06B94F8764020B1C26C4FF4AC70214657
S109391A9047204610BD99
S113392038B540F20004C2F20004E06B00281EBF68
S1133930816A4FF491708847FFF767FC01281CBF28
S1133940A220FCF797FDFFF760FC012801BF94F863
S113395077000028A420FCF78DFDFDF7D3FF42F685
S11339605030C2F20000006801281CBF4FF4807080
S1133970FCF780FD42F65830C2F2000000680128CE
S11339801CBF4FF48070FCF775FDA06B20B10120C3
S1133990607184F87A0018E0D4E90401E26A236BC8
S11339A0013041F10001C4E90401501CE062C01A75
S11339B05CBF0120607194F87B00013805D384F862
S11339C07B00000604BF01202071A56C1DB168684E
S11339D080472D68FAE7E06B002808BF38BD816C8A
S10D39E04FF49170BDE83840084729
S11339EA70B540F20005C2F200050446E86B30B136
S11339FAC66AC16B2046884701462F20B047686AC9
S1133A0A30B195F87700002804BFA120FCF72DFDFA
S1133A1AFFF7F6FB012804BFA020FCF726FDFDF7FB
S1133A2A6CFFFFF7F3FE002C08BFAC68002C04BF40
S1133A3A8020FCF71AFD94F853000F281CBF80203D
S1133A4AFCF713FD42F21820C2F20000066826B100
S1133A5A7168204688473668F9E742F23420C2F290
S1133A6A0000016800291CBF204688472046FFF74A
S1133A7AF3FB802080F31188A06800281CBF20462D
S1133A8A00F0E3FB204600F070FB42F23C20C2F255
S1133A9A00000168A14204BF00210160687810286F
S1133AAA24BF9920FCF7E1FC687808B980F31188EF
S1133ABA0020E96984F853008C4204BFA869E861CC
S1133ACAE86B40B1016D20468847E86B00281EBFA9
S1133ADA816C2F208847A868844210D1802080F303
S1133AEA1188A968E86B00220A6000281CBF806953
S1133AFA804740F20000C2F20000FEF732F9BDE846
S1093B0A704000F08EBCC7
S1133B1070B50C4642F28C16C2F200060546F068F7
S1133B20002804BFEB20FCF7A5FC3069002804BF83
S1133B30EC20FCF79FFCD6E90812A1FB050301FB6E
S10D3B4004310023FDF7F2FE70BD0E
S1133B4A2DE9F04140F20007C2F200070446F86B7F
S1133B5A38B1C56AC16B20468847014640F21B103A
S1133B6AA847FDF7CAFE42F28C10C2F2000094E89C
S1133B7A6C0180E86C01D0E90051B5FBF1F14161B7
S1133B8A4CF60028C3F69A389DB34FF47A74294642
S1133B9A0B46B4FBF1F101FB134100291C46F7D192
S1133BAAB5FBF3F14FF47A72B2FBF3F2C0E90621E2
S1133BBA15B344F24026C0F20F06294633460C4692
S1133BCAB3FBF1F101FB143100292346F7D1B6FB0B
S1133BDAF4F10162B5FBF4F1416285B1294642462A
S1133BEA0B46B2FBF1F101FB132100291A46F7D166
S1133BFA06E00122C0E906250122C0E90825434658
S1133C0AB5FBF3F2F96BB8FBF3F3C0E90A32002906
S1133C1A08BFBDE8F081896C40F21B10BDE8F04191
S1053C2A084745
S1133C2C10B5FFF7ECFA40F20004C2F200040128CC
S1133C3C01BF94F877000028A420FCF715FCFDF7CD
S1093C4C5BFEE06A10BDFE
S1133C5210B5FFF7D9FA40F20004C2F200040128B9
S1133C6201BF94F877000028A420FCF702FCFDF7BA
S1093C7248FEE06A10BDEB
S1133C7841F65070C2F2000003210161416144F62B
S1133C882922C0F20002826142F24821C2F20001F4
S1133C98C1614FF480610162002181624162C162A5
S1133CA8026642F62B32C2F2000242661022826693
S1133CB80167C1664167BFF35F8F44F61822C0F2FB
S1133CC8000281F00F03D35C435401311029F8D169
S1093CD8BFF35F8F70478B
S1133CDE2DE9F041984615460E4641F65074C2F24F
S1133CEE000407462078002808BFFFF7BEFF04F142
S1133CFE1C030020EFF311824FF0200181F3118891
S1133D0E53F8181B19B1013021698842F8DB216977
S1133D1E88420EDA00EB400104EBC10100238F61EF
S1133D2ECE610D628B624B62C1F82C80BFF35F8F44
S1113D3E01E04FF0FF3082F31188BDE8F08100
S10F3D4CFDF738FFFCF7B2FBFCF754FA5B
S1133D5810B5EFF3108072B64EF60054CEF200049C
S1133D68216A41F47F0121620021E16180F3108816
S1133D7820684FF6F07108404CF27021884204BF65
S1133D88206810F4700F1FD0EFF31480800744BF2D
S1133D98A720FCF76BFBD4F8880000F47000B0F59A
S1133DA8700F1CBF4FF48370FCF760FBD4F8340227
S1133DB8800F02289CBF4FF48370FCF757FB4FF029
S1133DC80070C4F83C0210BD206810F00E0F04BF48
S10B3DD8FE20FCF74BFBD7E7CA
S1133DE04FF60040C2F2030040F20001C2F20401A7
S1073DF0081A7047F2
S1073DF46846704762
S1133DF842F64630C2F200000021017042F6453016
S1133E08C2F20000017042F64730C2F200000170AD
S10F3E1842F23C20C2F20000016070473E
S1133E242DE9F04142F64A31C2F2000140F2800227
S1133E34C2F200020B785F1CD05C0F7043280CD1D3
S1133E44F8B20233105C0B7042F2F011C2F20001BA
S1133E540968002918BF884705E042F24626C2F2E1
S1133E640006318811B10020BDE8F08101213180C0
S1133E7441F68865C2F200057228287015DC6328AF
S1133E8449D06C2840F0F5800220308040F20000D4
S1133E94C2F20000742184696970002C00F0E98086
S1133EA4204600F0FFF82468F7E7742848D0732804
S1133EB440F0DF80FFF7BCFCFFF7C9FE00F0F2F826
S1133EC440F20004C2F20004E06900F0EBF8A068D8
S1133ED400F0E8F84CF65820FFF7E3F93088C728D7
S1133EE49FBF0121295401303080FFF7F3F900F01A
S1133EF411F9FFF716FA00F00DF93188B4F87400DB
S1133F04FF2839D9C7299FBFFC226A540131318063
S1133F14FFF7C7F935E0FFF7BBF9044600F0ACF846
S1133F24810854F8042BB2F1CD3F03D101390A04BA
S1133F34F7D1002120F00300890089B2401A96E0E9
S1133F44FFF7A6F9044640F21808C2F2000890F8F4
S1133F54507040460068A04225D00028FAD144F2AB
S1133F644E10FFF79EF93088C72800F2828054214E
S1133F742954013030807CE0C7299EBF6854481C12
S1133F843080FFF767F900F08DF8FFF727FF044648
S1133F94B0F57F4F05D34FF47F4040EA1440FFF758
S1133FA480F9204663E000F0EBFB00F07BF858F85E
S1133FB4108C204600F078FB00F0ACF8A045B8461D
S1133FC408BF4FF0FF0831882069002F18BFB84696
S1133FD4FF2809D9C7299FBF00226A5401313180BF
S1133FE400F060F8308804E0C72908D86854481CF5
S1133FF43080C7289EBF05F8008001303080A06857
S1134004002818BF806800F04DF8E06800F04AF812
S11340142046FFF7D0F900F045F8204600F0B6F941
S113402400F040F8206B00F03DF82046FFF7F8F963
S11340348046B0F57F4F05D34FF47F4040EA1840E3
S1134044FFF72FF94046FFF72CF9204600F062FBF6
S11340543188C72909D8685401F1010030801FBF91
S113406494F852202A54881C3080FFF7DDFDFFF7B2
S10B407418F93088BDE8F08161
S113407C42F64A3CC2F2000C40F28001C2F200014A
S113408C9CF80020531CDBB2885CC95C02328CF8AF
S10B409C002041EA00207047F6
S10740A4FEF746BF1A
S11340A810B50446000CFFF7FAF82046BDE81040A6
S10740B8FFF7F5B85D
S11340BC10B5802080F3118842F64630C2F200001D
S11340CC007830B9FEF730FF00285CBFC0B2FCF7B3
S11340DCA1FC40F20004C2F200046078102824BF52
S11340EC9920FCF7C1F96078002818BF10BD80F343
S10740FC118810BD56
S113410080B5FEF717FF002844BF012008BDC0B2E8
S10B4110FCF786FC002008BD49
S113411870B542F24625C2F2000501462E88C6F162
S1134128C7001E2828BF1E200024002918BF002805
S113413816D141F68860C2F20000C72E9EBF84558E
S113414801362E80002C08BF70BD10FA86F0224676
S1134158FDF780FC3019288070BD0134A04203D0DB
S10F41680A5D002AF9D1E4E70446E2E70E
S1134174016A02680A600068002818BF0162704777
S113418438B50D4604460069002804BFCB20FCF76B
S11341946FF9FFF73EFB206935B129682562216078
S11341A42C60D1B10B690CE040F21801C2F2000199
S11341B40A46096871B10B699842F9D322622160F5
S11341C414600C62834214BF002094F8520084F8F3
S11341D4510002E022622160146094F8500098B9FE
S11341E4802080F311882046FFF7BEFA40F20004D1
S11341F4C2F200046078102824BF9920FCF738F92F
S1134204607808B980F31188BDE8384000F00CB92F
S113421438B540F20004C2F200042578E16B681C4E
S1134224207021B1A0680A6A90F850109047204683
S1134234FDF79AFD25706078102824BF9920FCF7B7
S113424417F96078002818BF38BD80F3118838BD89
S11342548268D2E90021002A18BF516000238360D8
S10742640A60704731
S113426840F20000C2F20000C16E00291FBF82683C
S1134278516400219164806E002808BF704700478C
S113428870B541F68C30C0F20000006800785328FD
S1134298FED144F65020C0F20000807900B1FEE758
S11342A841F68830C0F200004CF658210068884274
S11342B8FED142F28C11C2F2000140F20005C2F2B2
S11342C80005012295F876006FF000432B63C1E9DD
S11342D80622C1E90822C1E90A2258B1012806D1F7
S11342E8686A38B9A86828B195F8770010B9E32046
S11342F8FCF7BCF8686A30B195F87700002804BF69
S1134308A120FCF7B3F8FEF77CFF012804BFA02026
S1134318FCF7ACF8FDF7F2FAFFF71AFD01262E7048
S1134328FEF796FF0446FFF761FD001BB0F120017C
S11343381EBF2046CD22FDF7BCFB85F8786070BD12
S113434810B540F27604C2F2000454F83A0C00287E
S11343581EBF816A40F261108847A078002804BF14
S1134368A520FCF783F8802080F3118820780028A2
S11343781CBFE420FCF77AF854F86A0C0121217078
S10B4388BDE81040FDF7BFBCC5
S113439070B540F20006C2F200060446F06B38B174
S11343A0C56AC16B20468847014640F22710A847DA
S11343B0FEF72BFF012801BF96F877000028A42000
S11343C0FCF758F8FDF79EFA002C08BFB468002CDF
S11343D004BF8020FCF74EF894F853000F281CBF4C
S11343E08020FCF747F8FFF716FAA56BB068844203
S11343F011D1802080F3118800F0C4F9316F7278F4
S1134400401A0544102A24BF9920FCF733F8707829
S113441008B980F3118800F009F8F06B20B1C26C80
S10F442040F2271029469047284670BD42
S113442C10B540F20004C2F200042078002804BF46
S113443C9720FCF719F8207801382070207800B107
S113444C10BD60680028FBD0802080F31188606860
S113445C68B1E16B0120207021B1A0680A6A90F860
S113446C501090472046FDF77BFC002020706078AC
S113447C102824BF9920FBF7F7FF6078002818BF99
S10B448C10BD80F3118810BD7E
S11344942DE9F04F83B01D4691468A468046DDE9F6
S11344A40D70029040F20006C2F20006DDF830B04E
S11344B4F06B68B12C465546D0E90EA140468847B6
S11344C4014600972E204A465B46D047AA46254615
S11344D496F87800002804BFA520FBF7C9FF706A8A
S11344E430B196F87700002804BFA120FBF7C0FF81
S11344F4FEF789FE012804BFA020FBF7B9FFFDF7EE
S1134504FFF9802080F31188B46934B1444504BFB1
S1134514AA20FBF7ADFF2468F7E740F20004C2F2D7
S113452400046078102824BF9920FBF7A1FF607869
S113453408B980F3118840465421FDF7BBFAC8E951
S113454404990F2088F85300029888F8520094F8CC
S11345547D00C8F824A088F85000572F9CBF782009
S1134564FBF786FFC8E90A7B58463946CD22FDF796
S1134574A2FAE06B40B1016940468847E06B002829
S11345841EBFC168404688470BEB070020F00700B4
S1134594002140F8581DC8F80400A91CC0E91351AF
S11345A44FF0807141F6FB42C0F20002C0E91021D1
S11345B46FF0020141620121CCF6CC418A1C4B1CF0
S11345C4C0E90B13426301F10A0C01F1090E01F174
S11345D4080ACE1D8D1D4A1D0B1D0331C0E90113AC
S11345E400F10C0181E86444C0F820C04046002175
S11345F4FFF7C6FDE06B002804BF03B0BDE8F08FED
S10F4604816C2E2003B0BDE8F04F084785
S113461038B540F20005C2F200050446E86B18B153
S1134620C26A2A2021469047686A30B195F877001B
S1134630002804BFA120FBF71DFFFEF7E6FD0128BB
S113464004BFA020FBF716FFFDF75CF9012C04DB87
S1134650FFF7ECFA204400F009F8E86B002808BFE3
S10F466038BD816C2A20BDE838400847B2
S113466C10B540F20001C2F20001044691F8760044
S113467C58B1802080F311888868042180F8501088
S113468CC460BDE81040FFF7BFBD487800281CBFCC
S113469C9A20FBF7E9FEFFF7C3FA001BFBD410BD0D
S11346AC70B540F20005C2F200050446E86B38B15F
S11346BCC66AC16B20468847014640F21510B047C4
S11346CCFEF79DFD012801BF95F877000028A42072
S11346DCFBF7CAFEFDF710F9002C08BFAC6844B117
S11346EC94F853000F281CBF8020FBF7BDFE646AAE
S11346FC03E044F6BA14C0F20004E86B20B1C26CB7
S10F470C40F2151021469047204670BD75
S113471870B540F20005C2F200050446E86B38B1F2
S1134728C66AC16B2046884701464FF48B70B04770
S1134738FEF767FD012801BF95F877000028A4203B
S1134748FBF794FEFDF7DAF8002C08BFAC68002CE0
S113475804BF8020FBF78AFE94F853000F281CBF7F
S11347688020FBF783FE94F85140E86B20B1C26CBB
S10F47784FF48B7021469047204670BD22
S11347842DE9F04142F28C15C2F20005E8680028D4
S113479404BFEB20FBF76CFE2869002804BFEC205F
S11347A4FBF766FE802080F3118840F20006C2F213
S11347B40006E868D6E904788047044628698047F7
S11347C428B10137E86848F1000880470446707846
S11347D4102824BF9920FBF74BFE707808B980F3A6
S11347E411886869297AA7FB002308FB0033002792
S11347F4001B67F1000800291CBFB8462046801836
S10B480448EB0301BDE8F0815B
S113480C70B540F20006C2F20006F06B00281EBF21
S113481C816AD6208847FEF7F2FC012801BF96F87E
S113482C77000028A420FBF71FFEFDF765F8FFF7BF
S113483CA3FFFFF767F904460D46F06B18B1C26C81
S10F484CD620214690472046294670BD26
S113485838B540F20005C2F200050446686A30B172
S113486895F87700002804BFA120FBF7FFFDFEF7A9
S1134878C8FC012804BFA020FBF7F8FDFDF73EF8AB
S1074888EC6338BDE4
S113488C2DE9F0471446884641F65076C2F20006EC
S113489C05463078002808BFFFF7E8F905EB45001A
S11348AC06EBC007B94659F8706F59F804AC564575
S11348BC12D9D7E919028119951BA54228BF25469F
S11348CC40462A46FDF7C4F8B86EA9190E1A18BF4B
S11348DC0E46641BA84400E00025AAEB0600A04287
S11348EC38BF04463CB1786E811940462246FDF728
S11348FCAFF826442544002D18BFC9F8006028469B
S107490CBDE8F08787
S11349102DE9F041984616460F4641F65075C2F20D
S1134920000504462878002808BFFFF7A5F9022CE3
S113493084BF4FF0FF30BDE8F081069AEFF3118099
S11349404FF0200181F3118854B104EB440105EBCD
S1134950C10100230F664E66C1F868800B67CB6601
S113496004EB440105EBC1014A67BFF35F8F80F399
S10B497011880020BDE8F0816C
S1134978082938BF70470022C0E9002142F2E81133
S10B4988C2F20001086070474F
S1124990436F72746578204D34462F4D374600BF
S10A499F7637764C4450000A
S10D49A65468697264204C45440013
S10D49B000000000000000000000F9
S10D49BA4F535F49646C652829001F
S10C49C44D61696E5461736B00CE
S11349CD4E3D656D624F5320737461727420707225
S11349DD6F6A6563742C4F3D656D624F532C443D76
S10C49ED436F727465782D4D00CE
S11049F6492331353D5379735469636B00D7
S1134A0353454747455220656D624F532056353110
S1084A1338303075008D
S1134A1800000000000054545220524547474553B3
S1044A280089
S10C4A295465726D696E616C0044
S1074A34A5040000D1
S10B4A384850205461736B0027
S10B4A404C50205461736B001B
S10B4A48537973566965770088
S1134A5008181C20242C00040C1014181C24282CC6
S10B4A603034383C405051523F
S1134A6800B506480649884205D00268043003B4F4
S1134A78904703BCF7E708BC18470000344A000015
S1074A88384A0000A4
S1134A8CC14A0000000000204F2B0000D34A000054
S1134A9C502B0020B44A00000C000000911B0000B5
S10B4AAC694A00000B0200003E
S10F4AB4010000000090D003010000008D
S1134AC0206861680834002200E042540139FCD5B2
S1054AD0704729
S1134AD220686168A2680C3401E08B5C8354013A5B
S1074AE2FBD5704745
S9033D4D72
